:020000040800F2
:10000000707E002061020008BB310008FD1E000860
:10001000B9310008310C00085554000800000000F8
:10002000000000000000000000000000A101000826
:10003000E719000800000000FD010008E143000886
:100040007B0200087B0200087B0200087B0200089C
:100050007B0200087B0200087B0200087B0200088C
:100060003D1A00089D1A00087B0200087B02000868
:100070007B0200087B0200087B0200087B0200086C
:100080007B0200087B0200087B0200087B0200085C
:100090007B0200087B0200087B0200087B0200084C
:1000A0007B0200087B0200087B0200087B0200083C
:1000B000454E00087B020008D14E00087B02000874
:1000C0007B0200087B0200087B0200087B0200081C
:1000D0007B020008795000087D500008E5500008B8
:1000E000E91900087B0200087B0200087B02000877
:1000F0007B0200087B0200087B0200087B020008EC
:100100007B0200087B0200087B0200087B020008DB
:100110007B0200087B0200087B0200087B020008CB
:100120007B0200087B0200087B0200087B020008BB
:100130007B0200087B0200087B0200087B020008AB
:100140007B0200087B0200087B0200087B0200089B
:100150007B0200087B0200087B020008795100083E
:100160007B0200087B0200087B0200087B0200087B
:100170007B0200087B0200087B02000800000000F0
:100180007B0200087B020008DFF810D000F05AFC68
:1001900000480047217E0008AFF30080707E0020F9
:1001A0002C4B19680868B0E8F04F80F30988BFF35A
:1001B0006F8F4FF0000080F311887047000000003F
:1001C00008480068006880F308884FF0000080F35A
:1001D000148862B661B6BFF34F8FBFF36F8F00DF35
:1001E00000BF00BF08ED00E0DFF80C00016841F43B
:1001F00070010160704700BF88ED00E0EFF30980F7
:10020000BFF36F8F134B1A681EF0100F08BF20ED5D
:10021000108A20E9F04F106009B44FF0BF0080F35E
:100220001188BFF34F8FBFF36F8F0AF065FE4FF059
:10023000000080F3118809BC19680868B0E8F04F25
:100240001EF0100F08BFB0EC108A80F30988BFF3CE
:100250006F8F7047500C0020EFF30580704700004F
:100260000648804706480047FEE7FEE7FEE7FEE750
:10027000FEE7FEE7FEE7FEE7FEE7FEE70D440008C7
:100280008901000840EA01039B0703D009E008C97F
:10029000121F08C0042AFAD203E011F8013B00F84B
:1002A000013B521EF9D27047D2B201E000F8012B97
:1002B000491EFBD270470022F6E710B513460A46E6
:1002C00004461946FFF7F0FF204610BD10B504465E
:1002D00004E00B7800F8013B03B1491C521EF8D230
:1002E000204610BD421C10F8011B0029FBD1801ACA
:1002F000704710B5002200E0521C835C8C5CA34266
:1003000001D1002BF8D1D8B2E1B2401A10BD03469A
:1003100011F8012B00F8012B002AF9D1184670477B
:100320002DE9FE4F804681EA0300C00F0C46009085
:1003300021F0004123F00045B8EB0200A94105D2AD
:100340004046214690461C460B46024623F000409C
:10035000104347D0270DC7F30A00C3F30A51029098
:10036000401A019040286BDAC3F3130040F4801B5D
:100370000098924620B10023D2EB030A63EB0B0BEB
:1003800001985946C0F14002504600F0FEF9064679
:100390000D4650465946019A00F016FA10EB080037
:1003A0006141002487EA115284EAE7731A4340D07E
:1003B000009A62B3019A012A4FEA075215DC001B2A
:1003C00061EB02014FF0004202EA0752CDE9004220
:1003D000001C41F5801132462B4600F04DFA03B067
:1003E000BDE8F08F40462146F9E7001B61EB0201B2
:1003F000001C41F5801300185B412018A2F500177E
:1004000047EB030140EAD570B6196D4111E06D0864
:100410004FEA360645EAC0754FEA0752001B61EB0A
:100420000201001C41F5801149084FEA3000001913
:10043000514132462B4603B0BDE8F04F00F00DBAF3
:100440000098012240000023D0EB020263EBE0732E
:10045000009821464FEAE074B8EB000061EB04011C
:10046000E9E783F000435BE781F0004158E72DE9BD
:10047000FE4F81EA030404F0004421F0004100949F
:100480004FF0000B23F0004350EA01045ED052EA23
:1004900003045BD0C3F30A54C1F30A552C44A4F2FD
:1004A000F3340194A0FB0254C1F3130141F4801111
:1004B000C3F3130343F4801301FB024400FB034E18
:1004C000840A970A44EA815447EA8357A4FB0768E1
:1004D00002958D0A05FB07854FEA932C04FB0C540B
:1004E0002705029D4FEA065847EA1637B5EB08057F
:1004F0006EEB070C870E920E47EA811742EA8312D1
:10050000A7FB0201B6EB0B0164EB00042B0D43EAE1
:100510000C335E1844EB1C50DA465146E7FB0201EF
:10052000C5F313044FEA0B3343EA14534FEA043282
:10053000019C43EA0603A4F10C040294009CCDE95B
:1005400000B400F099F903B0BDE8F08F0020014637
:10055000F9E72DE9F04D81EA030404F0004B21F0A6
:10056000004514464FF0000A23F0004150EA05020E
:1005700020D054EA01021DD0C5F30A570246C5F344
:100580001303C1F31300C1F30A5640F4801543F47A
:100590008013A7EB0608101BD64608F2FD3873EB54
:1005A000050002D308F1010801E092185B41B8F19F
:1005B000000F03DA00200146BDE8F08D00204FF463
:1005C0008011064684460EE0171B73EB050705D322
:1005D000121B63EB050306434CEA010C49084FEA82
:1005E000300092185B4150EA0107EDD152EA030056
:1005F00012D082EA040083EA0501084305D0101BEB
:10060000AB4106D20122002306E000224FF0004356
:1006100002E06FF0010253101AEB06004CEB085198
:1006200010EB0A0041EB0B01BDE8F04D00F015B9ED
:100630000EB5C10F80EAE0700844CA07002140F2FD
:1006400033438DE80E000A460B4600F015F903B05F
:1006500000BD0EB540F2334102910021CDE90011F9
:100660000A460B4600F008F903B000BDC1F30A5278
:1006700010B5C1F3130140F2FF3341F480119A42E7
:1006800001DA002010BD40F233439A42A2F2334215
:1006900003DC524200F088F810BD904010BD00F01D
:1006A000004230F000400AD0C10D01F56071C0F386
:1006B000160042EA0151C20840071143704700206A
:1006C0000146704701F0004330B421F0004150EA88
:1006D000010206D00A0DA2F56072C1F31301002ACF
:1006E00002DC30BC00207047440F44EAC104C10062
:1006F000E01830BC00EBC25000F078B830B50B46C3
:10070000014600202022012409E021FA02F59D4241
:1007100005D303FA02F5491B04FA02F52844151E15
:10072000A2F10102F1DC30BD2DE9F05F05460020A9
:1007300092469B4688460646814640241BE0284652
:1007400041464746224600F02FF853465A46C01A03
:10075000914110D311461846224600F016F82D1A82
:1007600067EB01084F4622460120002100F00DF8FA
:1007700017EB00094E41201EA4F10104DFDC4846BE
:1007800031462A464346BDE8F09F202A04DB203A42
:1007900000FA02F1002070479140C2F1200320FAD4
:1007A00003F3194390407047202A04DB203A21FAD2
:1007B00002F00021704721FA02F3D040C2F120027A
:1007C0009140084319467047202A06DBCB17203A90
:1007D00041FA02F043EAE07306E041FA02F3D04046
:1007E000C2F1200291400843194670470029A8BF72
:1007F0007047401C490008BF20F00100704710B44A
:10080000B0FA80FC00FA0CF050EA010404BF10BCFE
:10081000704749B1CCF1200421FA04F411FA0CF12B
:1008200018BF012121430843A3EB0C01CB1D4FEA64
:1008300000614FEA102042BF002010BC704700EB5F
:10084000C35010440029A4BF10BC7047401C49008D
:1008500008BF20F0010010BC704710B5141E73F1E2
:10086000000408DA401C41F1000192185B411A4370
:1008700001D120F0010010BD2DE9F04D92469B46BC
:1008800011B1B1FA81F202E0B0FA80F22032904662
:10089000FFF77BFF04460F4640EA0A0041EA0B01DE
:1008A00053465A46084313D0114653EA010019D063
:1008B000C8F140025046FFF777FF05460E46504606
:1008C00059464246FFF761FF084305D0012004E086
:1008D00020463946BDE8F08D0020054346EAE07623
:1008E0002C4337430A986305E40AA0EB0800002272
:1008F000FD0A44EA47540A3002D500200146E9E7E0
:10090000010510196941DDE9084500196941BDE893
:10091000F04DA2E770B521F0004303430CD0C1F3C2
:100920000A550024D5EB040564EB0403D617AD1A71
:10093000B34102DB0020014670BD201841EB02519B
:1009400070BD2DE9F04D00231A461B1A8A4103DBC6
:1009500000200146BDE8F08DC1F30A52C1F3130136
:1009600041F480154FF0000BD10702D100186D4102
:10097000521E0027044640F2FF11384601EB620A7E
:100980003E468046024600204FF48011FFF70CFFE0
:10099000C2197141BB1846EB0100B4EB030C75EBB7
:1009A000000C04D3E41A65EB000517460E46241923
:1009B00008F101006D4180463428E3DDF91946EB6A
:1009C0000600091BA84103D24FF0FF32134601E095
:1009D000002213461BEB070046EB0A51BDE8F04D21
:1009E000FFF73BBFC1F30A52C1F3130140F2FF33DB
:1009F00041F480119A4202DA00200146704740F229
:100A000033439A42A2F2334202DC5242FFF7CCBE99
:100A1000FFF7BBBE30B5041E71F1000404DB4FF0DC
:100A20000044404264EB0101141E73F1000405DB35
:100A30001C464FF00043524263EB0403994208BF47
:100A4000904230BD064C074D06E0E06840F00103DF
:100A500094E8070098471034AC42F6D3FFF798FBB0
:100A600088DD0008A8DD000870B58C1810F8015B5F
:100A700015F0070301D110F8013B2A1106D110F837
:100A8000012B03E010F8016B01F8016B5B1EF9D13B
:100A90002B0705D40023521E0DD401F8013BFAE7C1
:100AA00010F8013BCB1A921C03E013F8015B01F82C
:100AB000015B521EF9D5A142D8D3002070BD0000C1
:100AC000064B4FF48051012803D00022184607F04E
:100AD000A5B80122184607F0A1B80000000802409E
:100AE00070B540F6024008F091F90B4D4FF4805478
:100AF000234602220121284607F0A3F823460322B9
:100B00000021284607F0C1F821462846BDE870407C
:100B1000002207F083B80000000802400148008866
:100B200070470000CC080020064820210181064AB9
:100B3000426040F60441018040230382C26041814B
:100B400001F0FDB9641300200010024010B503F05D
:100B5000E6FB4FF4967006F039FE03F025FBBDE886
:100B6000104000F0BBBC000010B586B003F0D7FB0E
:100B70004FF4C87006F02AFE03F016FB00F0AEFC3E
:100B8000074808A1028801A804F08CFD074810233B
:100B900001AAC46904211846A04706B010BD000090
:100BA000CC080020253564204C757800FC08002016
:100BB0002DE9F04105460E46002D0BD00A270024F2
:100BC00006E028193A464178285D00F005F8A41C93
:100BD000B442F6D3BDE8F0812DE9F04106460F4658
:100BE00090460024094D03E003F028F8641C24B269
:100BF00035F8160000FB07F191FBF8F1A142F3DC98
:100C0000BDE8F041282009F01DBF000060B80008D1
:100C100008B505A1096800918DF802000422694613
:100C2000024804F033FB08BDF4F500FBFC13002080
:100C3000FEE700001A210148FFF73DBB7E140020AB
:100C400010B5002835D0002933D01A2931D30178C6
:100C50004278C378114482781A44114402791144CD
:100C60004279114482791144C2791144027A1144C3
:100C7000427A1144827A1144C27A037B847B1A44FB
:100C8000437B23441A44C37B1A44037C1A44437CA9
:100C90001A44837C1A44C37C1A44037D1A44437D5E
:100CA0001A44837D1A44C37D1A4411440176090A0B
:100CB000417610BD70B50024324D696800290FD00F
:100CC00031A08847696837A0884700F0C9F960B14A
:100CD00006F004FD002854D12878012813D01CE028
:100CE000BDE8704039A004F0B3BC41F288308442C2
:100CF00004D36968BDE870403CA00847641C01202B
:100D000009F0A0FEE1E700213EA006F049FC20B179
:100D1000002008F067F9002833D02878032809D18B
:100D2000012139A006F03CFC20B1012008F05AF95D
:100D3000002826D02878052809D1022133A006F002
:100D40002FFC20B1022008F04DF9002819D0287896
:100D5000072806D107F0C6F818B108F0ADF9002849
:100D60000FD028780928B0D1064A0120303A294B03
:100D700011785854481C10706A6827A090470020CA
:100D8000287070BDE4090020537461727420747976
:100D900070696E672066696E6765727072696E74DD
:100DA00073000000436865636B696E672077686550
:100DB00074686572207468652049442069732072E4
:100DC0006567697374657265640000005B45525223
:100DD0004F525D2063313031362E73686F775F6C10
:100DE0006F67206973204E554C4C0A00456E726F38
:100DF0006C6C6D656E742074696D6564206F7574BC
:100E0000000000004F6E650054776F0054687265F3
:100E1000650000004C14002046696E6765727072B0
:100E2000696E7420656E726F6C6C6D656E74207384
:100E300075636365737366756C2C206964203D204F
:100E40002025640010B54FF4406007F0DFFF012259
:100E5000BDE810404FF400430021014806F0F1BE08
:100E60000000024070B5214C6168002906D020A026
:100E70008847A4F130054FF47A760FE0BDE8704062
:100E800025A004F0E5BB61682BA0884768884FF473
:100E90007A714843B0FBF6F009F0D4FD00F0E0F8B9
:100EA0000028F0D0616829A0884700212EA006F014
:100EB00077FB20B1002008F095F828B107E06168C1
:100EC000BDE870402CA00847616834A0884761687D
:100ED00035A088472821012000F0B2F9002804D16C
:100EE0006168BDE8704035A0084770BDE409002086
:100EF0005374617274696E672066696E676572709B
:100F000072696E74206964656E7469666963617480
:100F1000696F6E2E2E2E00005B4552524F525D209F
:100F200063313031362E73686F775F6C6F6720697D
:100F300073204E554C4C0A004E6F2066696E6765F3
:100F40007220646574656374656400004361707445
:100F50007572696E672066696E6765727072696E18
:100F60007420696D616765004964656E74696669BE
:100F7000636174696F6E000046696E6765727072B6
:100F8000696E7420696D6167652063617074757244
:100F900065206661696C65640000000073617665B8
:100FA000206661696C640000736561726368206625
:100FB000696E6765727072696E7400007365617244
:100FC00063682066696E6765727072696E74206608
:100FD00061696C640000000010B5FFF733FF00F09A
:100FE000ABF8074800F050F805484FF47A71001F3D
:100FF0004088BDE810404843B0FBF1F009F022BD45
:10100000B80900202DE9F041C0B0114F78680028E0
:101010001AD000240125DFF83C806E4618F8050040
:10102000012808D1C4F5807130192B460AA204F0BA
:101030001FFB2044C4B26D1C322DEFDB0020305565
:101040007A68694605A0904740B0BDE8F08100008D
:10105000E40900204C1400202564200025730000C2
:101060004FF40041014806F0E5BD000000000240D9
:10107000002806D0002904D00A460146014804F0A1
:1010800005B97047BC09002030B587B004461B483D
:1010900041681BA088471C221CA16846FFF7F2F894
:1010A00020788DF8080060788DF80900A0788DF818
:1010B0000A00E0788DF80B001A216846FFF7C0FDA2
:1010C0001A216846FFF7D4FF0C484FF47A71303884
:1010D00040884843B0FBF1F009F0B4FC0024124D05
:1010E000295D12A004F0B4FA641C1A2CF8D311A0E4
:1010F00004F0AEFAFFF79EFD07B030BDE409002012
:1011000073657420636F6C6F7200000055AA000055
:1011100024000400030200000000000000000000A2
:10112000000000002C0100007E1400202530325801
:10113000200000000A000000014804F047B8000049
:10114000BC09002070B505460C4619484368002BC1
:1011500003D02246294617A09847294600221A4B59
:1011600001E05A54491CA142FBDD18480572290AC6
:1011700041728472210AC1721A21FFF761FD1A219E
:101180001248FFF775FF642009F05CFC00240E4D47
:101190003235295D0EA004F05BFA641C1A2CF8D3DA
:1011A0000DA004F055FABDE87040FFF743BD000004
:1011B000E409002064656C65746520696420256419
:1011C000202D2025640000004C140020820A0020FD
:1011D00025303258200000000A00000010B50749F1
:1011E0000872000A48721A210448FFF729FDBDE879
:1011F00010401A210148FFF73BBF0000340A0020CD
:1012000010B50D4A9072000AD0721173080A50731B
:101210001A211046FFF714FD1A210748FFF728FF8F
:1012200006484FF47A714088BDE810404843B0FB4F
:10123000F1F009F007BC00009C0A0020B40900206E
:1012400070B5FFF7DDFF1A484FF47A7140884843C4
:10125000B0FBF1F009F0F6FB0024164D295D16A055
:1012600004F0F6F9641C1A2CF8D315A004F0F0F978
:1012700029790F483030632902D1A979052907D08F
:10128000297965290FD041680EA08847002070BDDC
:10129000A97AEA7A01EB0221C9B24170426811A031
:1012A0009047012070BD416816A08847002070BD9E
:1012B000B40900207E1400202530325820000000A0
:1012C0000A000000434D445F56455249465920529A
:1012D0004543454956452044415441204552524FCB
:1012E00052000000766572696669656420737563F3
:1012F0006365737366756C6C792C206964203D207E
:101300002564000046696E6765727072696E7420AC
:10131000766572696669636174696F6E206661697A
:101320006C65640010B50A4810210181094A4260C9
:101330004FF44061018020230382C260418100F0AC
:10134000FEFDBDE8104040F2014000F01FB8000073
:10135000AC1300200000024010B50B4800F0A5FEC1
:101360004F21094800F06EFE074800F0E2FE002819
:10137000FAD10021044800F034FE0446024800F08F
:10138000B7FE204610BD0000AC13002010B5044687
:101390000F4800F08AFEE009C0F34400402141EA12
:1013A00040010B4800F04EFE094800F0C2FE002844
:1013B000FAD1E1B2064800F045FE054800F0B9FE5A
:1013C0000028FAD1BDE81040014800F091BE0000AD
:1013D000AC1300202DE9F04105460F4616460421C6
:1013E000052000F029F80021012004F02BF98021CC
:1013F0000A2002F087FF002405E0295D092004F09F
:1014000021F9641CE4B2BC42F7D30321012004F0AB
:1014100019F9FF24052002F0C3FE641EE4B20CB1EA
:101420004007F7D5222002F0BBFE3070212002F0E9
:10143000B7FE7070BDE8F08170B505460C462846D1
:1014400002F0AEFE20EA04012846BDE8704004F038
:10145000F9B80000014600200E4A914200D1012057
:101460000C4A1832914201D140F00200094A303250
:10147000914201D140F00400064A4832914201D124
:1014800040F00800034960318968002900D008470E
:10149000704700006008002010B504460E4800F0B8
:1014A00004FE46210C4800F0CDFD0B4800F041FE43
:1014B0000028FAD12146084800F0C4FD064800F093
:1014C00038FE0028FAD1044800F012FEBDE81040B2
:1014D0000A2006F07BB900006413002010B509490A
:1014E0008C1E0878497801EB002080B2FFF7B1F834
:1014F0009FED051B53EC112BFFF72BF8FFF7B6F808
:10150000208010BDCE080020333333333333F33F14
:1015100070B588B0054620220C496846FEF7B2FE39
:101520000FE000246E4606EB840116F82400CB7809
:101530008A78497807F084FE08F0AEF8641C082C1D
:10154000F1DB6D1EADB2ECD208B070BD50DB00080F
:1015500070B5002400F016F9124D04E0641CE4B2EA
:10156000012006F09BF98021284606F063FB08B1B4
:10157000642CF3D3642C01D3012070BD002404E05B
:10158000641CE4B2012006F089F98021284606F0A7
:1015900051FB08B9642CF3D3642C01D3012070BD36
:1015A000002070BD0008024010B5012006F00EF9C1
:1015B0000148408810BD0000CC0A002010B5012071
:1015C00006F004F90148008810BD0000CC0A002094
:1015D00010B540F6024007F019FC074C80230222A8
:1015E0000121204606F02DFB204680230222BDE883
:1015F0001040002106F049BB0008024010B5FFF77B
:10160000E7FFBDE8104000F07BB8000070B5002493
:10161000134D04E0641CE4B2012006F03FF9802180
:10162000284606F007FB08B1642CF3D3002404E03D
:10163000641CE4B2012006F031F98021284606F04E
:10164000F9FA08B9642CF3D3282006F027F9802191
:10165000284606F0EFFA08B1012070BD002070BDE9
:101660000008024070B5002000244006050EFFF778
:10167000CDFF2843641CE4B2082CF6D370BD2DE9DD
:10168000FC4106460F4600F023F8FFF761FF10B15A
:101690000120BDE8FC8100246D46FFF7E3FF2855DB
:1016A000641CE4B2052CF8D39DF800109DF80100ED
:1016B0009DF803300A189DF8020003441A449DF86F
:1016C00004309A4201D1398030800020E1E70000E7
:1016D00010B500F067F8094C00228021204606F082
:1016E0009DFA142006F072F801228021204606F0AF
:1016F00095FABDE81040282006F0D0B80008024056
:1017000010B5FFF7E5FFFFF723FF0028FBD110BD61
:10171000F8B51149881EFFF7B2FF104C10230621BF
:10172000E5690FA20A20A84710230321E5690FA24B
:101730000A20A8471027084E0097B61E032306214B
:10174000256932886420A84700970323246972889A
:1017500019466420A047F8BDCE0A0020FC080020EE
:1017600074656D70657261747572650068756D6918
:1017700064697479000000000149881EFFF77FBF8B
:10178000CE0A002010B540F6024007F03FFB802350
:101790000022BDE810401146014806F052BA000090
:1017A0000008024010B540F6024007F02FFB074C3E
:1017B000802302220121204606F043FA204680239E
:1017C0000222BDE81040002106F05FBA0008024086
:1017D00070B5002400F0BEF84FF40046124D04E04E
:1017E000641CE4B2012006F06BF83146284606F08E
:1017F00021FA08B1C82CF3D3C82C01D3012070BD45
:10180000002404E0641CE4B2012006F059F83146DB
:10181000284606F00FFA08B9F02CF3D3F02C01D3C8
:10182000012070BD002070BD000C024010B500F01A
:10183000A3F800F072F8FFF7CBFFCC2000F0A9F876
:10184000BE2000F0A6F800F059F8044600F056F863
:10185000072805D9C043C0B2E143CCB2002100E063
:1018600001210002204400B200EE100ADFED050A5B
:10187000B8EEC00A20EE200A002901D1B1EE400ADC
:1018800010BD00000000803D10B540F6034007F099
:10189000BDFA4FF4004303220021074806F0F5F992
:1018A00000F04EF8012000F05FF800F036F8BDE8D7
:1018B0001040FFF78DBF0000000C024010B500F093
:1018C0003FF8002000F050F8022005F0F9FF012059
:1018D00000F04AF800F03EF80B2005F0F1FF4FF45D
:1018E0000041054806F0A6F900F00102322005F09B
:1018F000E7FF104610BD0000000C024070B5002547
:101900000024FFF7DBFFC00140EA5500C5B2641CAC
:10191000E4B2082CF5D3284670BD10B500F010F8DD
:10192000002000F021F84FF4F07005F0C9FF01200D
:1019300000F01AF8BDE810400F2005F0C1BF00000C
:1019400002224FF400430121014806F07AB9000059
:10195000000C024001224FF400430021014806F030
:1019600070B90000000C0240C2B24FF400410148BF
:1019700006F054B9000C024010B5FFF7CEFFFFF798
:1019800027FFCC2000F005F8BDE810404420AFF35D
:10199000008070B50546FFF7D3FF0120FFF7E4FF95
:1019A000002405F001006D0860B10020FFF7DCFFA6
:1019B000022005F085FF0120FFF7D6FF3C2005F04F
:1019C0007FFF0BE00020FFF7CFFF3C2005F078FF02
:1019D0000120FFF7C9FF022005F072FF641CE4B28A
:1019E000082CDED370BD704710B54FF480542046EC
:1019F00006F00CF8A0B1A00408F058FD0B480168EF
:101A00000B48016000689FED0B1A00EE100A0A48AF
:101A1000F8EE400AB0EE000A10EE810A80ED000AEE
:101A20002046BDE8104005F0EBBF0000240B00206D
:101A30001C0B00209A99D93F200B002070B5042080
:101A400005F0E4FF002824D0124D0421284606F0BA
:101A5000F1F8114C60B10821284606F0EBF818B1F6
:101A60002068401E20600FE02068401C20600BE0D2
:101A70000821284606F0DEF818B12068401C2060D6
:101A800002E02068401E2060BDE87040042005F0A0
:101A9000B7BF70BD00000240F00A002070B50820FA
:101AA00005F0B4FF002824D0124D0821284606F086
:101AB000C1F8114C60B10421284606F0BBF818B1FA
:101AC0002068401C20600FE02068401E20600BE072
:101AD0000421284606F0AEF818B12068401E2060A8
:101AE00002E02068401C2060BDE87040082005F03E
:101AF00087BF70BD00000240F00A002010B507F05B
:101B0000C9F8BDE8104040F2E731A72003F068BAF9
:101B10004FF47A71884200D90846024600210148F4
:101B200008F0BEBB000C004070B540F6024007F064
:101B30006DF94FF4406007F069F90C4D4FF40074F3
:101B4000012223461146284606F07BF8234603224D
:101B50000021284606F099F863100122002104486C
:101B600006F06FF8BDE8704000F00EB800080240C3
:101B700000000240202802D20249085C7047002081
:101B8000704700008C13002010B500F089F901495E
:101B9000486010BDE008002010B500F081F90D4943
:101BA00008604A68801A886000280EDD00EE100A7E
:101BB000F8EEC00A91ED030AB8EEC00A80EE801A72
:101BC000BDEEC10A81ED020A01E00020886088684C
:101BD00010BD0000E00800204FF6FF7202EA01216C
:101BE000C043C0B20843704710B540F602442046D7
:101BF00007F00CF9204607F009F9204607F006F92E
:101C0000204607F003F9244C042302220121204638
:101C100006F017F802231A460121204606F011F8B3
:101C2000082302220121204606F00BF8012302229C
:101C30001946204606F005F804230222002120461A
:101C400006F023F802231A460021204606F01DF86C
:101C5000082302220021204606F017F80123022261
:101C60000021204606F011F800220121204605F04F
:101C7000D5FF0421204605F0CDFF0221204605F0C6
:101C8000C9FF0821204605F0C5FFBDE810404FF40C
:101C9000FA7005F09BBD0000000802402DE9F041FC
:101CA00005460024184F4FF6FF76280404D5082176
:101CB000384605F0B1FF03E00821384605F0AAFFD9
:101CC0000A2005F08BFD0221384605F0A3FF0A200B
:101CD00005F084FD0221384605F09EFF0A2005F03C
:101CE0007DFD06EA4505641CA4B2102CDDD3042159
:101CF000384605F08FFF0A2005F070FD3846BDE834
:101D0000F041042105F088BF0008024070B5164676
:101D100006F090FA044634B1002531462068FEF7FB
:101D2000E8FA10B102E0002070BD257A204605F0E7
:101D3000C3FE284670BD2DE9F04117461C4600261B
:101D4000002811D081B17FB174B106F0D9FA0546EF
:101D50006DB139462868FEF7CCFA50B12670284696
:101D6000BDE8F04105F0A8BE2670BDE8F081267000
:101D7000FBE720466968FEF7CAFAF0E70FB410B532
:101D8000C0B0044644AB4FF480716846439A03F0F8
:101D90009DFC6946204600F04FF840B010BC5DF84D
:101DA00014FB000000B5C1B0034606A24FF48071D9
:101DB00001A803F05DFC024601A9044803F066FA9D
:101DC00041B000BD2573FFFFFF0000002414002078
:101DD0002DE9F041C2B0074610460E46489A194612
:101DE000904200D31046884200D8084606F054F8C6
:101DF000054600244FF48078CDE900653B4608A2F3
:101E0000414602A803F034FC024602A9094803F047
:101E10003DFA641C0A2CEFDB42B0BDE8F081000003
:101E20006164642025732E69642C25642C2564FF6D
:101E3000FFFF00002414002000B5C1B0034600914C
:101E400006A24FF4807101A803F012FC024601A91A
:101E5000054803F01BFA41B000BD000025733D2288
:101E6000257322FFFFFF00002414002000B5C1B03D
:101E70000346009106A24FF4807101A803F0F8FB1D
:101E8000024601A9054803F001FA41B000BD000077
:101E900025733D2564FFFFFF00000000241400208F
:101EA00030B50020134B196841F400711960124CD1
:101EB0002169C905FCD400210E4A103A156845F481
:101EC0000075156040001D6845F400751D602569AA
:101ED000ED0500D5401C491CC9B21829EED3116884
:101EE00041F40071116080F40000116841F4007148
:101EF000116030BD2808024000000240FEE710B526
:101F000004466068816A228911438162204602F09A
:101F1000C2F9E068816A228A11438162022005F0D9
:101F20005DFC60688169228911438161052005F0AB
:101F300055FC6068816A22891143816210BD10B529
:101F40000446208806F062FF608906F05FFF0122E8
:101F500023891146606805F074FE2389032200215D
:101F6000606805F092FE0122238A1146E06805F0C0
:101F700068FE238A03220021E06805F086FE60687F
:101F80008169228911438161042005F027FCE06802
:101F90008169228A11438161BDE81040042005F067
:101FA0001DBC10B504466068816A228911438162B4
:101FB000204602F070F9E0688169228A114381614C
:101FC000022005F00BFC6068816922891143816160
:101FD000052005F003FC6068816A22891143816253
:101FE00010BD2DE9F04104460F460025204602F0C1
:101FF00045F900266068816A2289114381620220C6
:1020000005F0ECFB606881692289114381616806F3
:10201000050EE0680069218A084201D06D1CEDB20E
:10202000012005F0DBFB761CF6B2082EE2D32FB1BF
:102030002046FFF764FF2846BDE8F0812046FFF701
:10204000B0FFF8E770B504460E46204602F023F9CB
:102050006068816A2289114381620025300605D5B6
:10206000E0688169228A1143816104E0E068816A45
:10207000228A114381627006060E022005F0AEFB33
:1020800060688169228911438161022005F0A6FB05
:102090006068816A228911438162022005F09EFBFB
:1020A0006D1CEDB2082DD9D370BD10B50446204685
:1020B00002F0F1F8E0688169228A1143816105200C
:1020C00005F08CFB606881692289114381610520DC
:1020D00005F084FBE068816A228A11438162052051
:1020E00005F07CFB6068816A22891143816210BD22
:1020F00010B50446204602F0CEF86068816A228955
:1021000011438162E068816A228A1143816205205D
:1021100005F064FB60688169228911438161E06890
:102120008169228A11438161BDE81040052005F0D4
:1021300055BB70B504460025204602F09FF8E068C4
:102140008169228A11438161012005F047FB6068A3
:102150008169228911438161012005F03FFB208ABA
:10216000E26808E06D1CADB2FA2D04D92046FFF7F5
:10217000BFFF012070BD11690142F3D16068816A1F
:10218000228911438162002070BD000010B51A48F9
:1021900005F0F5F800EE100ADFED180AB8EE400A77
:1021A00020EE200A10EE100AFEF779FA41EC100B2F
:1021B0009FED131B03F028FC9FED131B51EC100B3C
:1021C00053EC112BFEF753F9FEF77CFA00EE100AE0
:1021D00010EE100AB0F1814F01DAB1EE000A10EEF4
:1021E000100A0B49884201DD9FED0A0ADFED0A0A59
:1021F00020EE200A10BD0000340C00206740533A46
:102200000000006091EDF0BF000000C0F5282840FC
:102210000000A0420000A04285EB2140014805F0EB
:102220002FB80000340C002010B50F484021018168
:102230000E4A42604FF44061018080230382C260F5
:102240004181FFF77CFE642005F0C0FA01F033FC09
:1022500001F0EAFA022005F0B9FA01F0E9FABDE866
:102260001040412000F090BAE81300200000024026
:1022700010B540F60444204606F0C8FD204606F09E
:10228000C5FD204606F0C2FD204606F0BFFD0D4C00
:1022900001231A460021204605F0D3FC0223012227
:1022A0000021204605F0CDFC042301220021204618
:1022B00005F0C7FC204608230122BDE8104000219C
:1022C00005F0BFBC001002402DE9F0414FF4406022
:1022D00006F09CFD40F60244204606F097FD20469D
:1022E00006F094FD204606F091FD204606F08EFD96
:1022F000204606F08BFD2F4E4FF4807423460222B9
:102300000121304605F09DFC2B4F65002B46022233
:102310000121384605F095FC012302221946384672
:1023200005F08FFC02231A460121384605F089FC8E
:10233000042302220121384605F083FC08230222EF
:102340000121384605F07DFC23460322002130465A
:1023500005F09BFC2B4603220021384605F095FC36
:10236000012303220021384605F08FFC02230322BB
:102370000021384605F089FC042303220021384659
:1023800005F083FC082303220021384605F07DFC7C
:1023900001222146304605F041FC002229463846FC
:1023A00005F03CFC3846BDE8F0410022042105F070
:1023B00035BC0000000002400008024070B506462F
:1023C00000241B4D06FA04F0000605D50122082161
:1023D000284605F023FC04E000220821284605F0E9
:1023E0001DFC00220221284605F018FC012005F002
:1023F000F5F9012005F0F2F901220221284605F045
:102400000DFC641CE4B2082CDCD300220121284618
:1024100005F004FC012005F0E1F9012005F0DEF9EA
:102420002846BDE870400122114605F0F7BB0000C8
:102430000008024033B581B00D461A4C002D20D063
:1024400009F00CF84FF47A714D43B5FBF1F1A4F1AA
:102450000C029368C31A994204D85178B1B1002193
:10246000517090605078104D90B19DF8040010B1FB
:10247000616901988847A96803B00120BDE8304030
:102480000847A06903B0BDE8304000470121E7E7F5
:102490000020009061698847A96803B00020BDE86A
:1024A00030400847240800204808002031B52DEDB1
:1024B000028B0024124D9FED138A00EE104AE96949
:1024C000F0EE480AB8EEC00A029888470F2005F0DF
:1024D0007DF9641C642CF0DD642400EE104AE96987
:1024E000F0EE480AB8EEC00A029888470F2005F0BF
:1024F0006DF9641E002CF0DABDEC028B38BD0000D3
:102500002408002000008C4210B5094C002208214C
:10251000204605F083FB00221021204605F07EFBBB
:1025200020460022BDE81040202105F077BB0000C6
:102530000004024011B49DF802209DF801109DF89E
:10254000000018BC00F022B811B42DED020B0D48AC
:10255000BDF8081001809DF80A10817080ED010A15
:10256000C0ED020A084900200870B5EEC00AF1EE7D
:1025700010FA02D11EBC00F02BB81EBC012000F0E6
:10258000CDB80000581300201808002070B50C4684
:102590001546002801D0012200E000220B4E202128
:1025A000304605F03BFB0CB1012200E00022102177
:1025B000304605F033FB0DB1012200E00022304629
:1025C000BDE87040082105F029BB0000000402406E
:1025D0001CB50948406800280CD000242346224638
:1025E0000321009409F0F4F801942046BDE81C4052
:1025F000FFF7A0BF1CBD00001808002070B51A4CE2
:1026000001222021204605F009FB4FF4FA752846E7
:1026100008F018FA00222021204605F0FFFA28468B
:1026200008F010FA01220821204605F0F7FA2846A2
:1026300008F008FA00220821204605F0EFFA2846A3
:1026400008F000FA01221021204605F0E7FA28469A
:1026500008F0F8F900221021204605F0DFFA28469C
:10266000BDE8704008F0EEB9000402402DE9FC41DD
:10267000264991ED010AB5EEC00AF1EE10FA03D831
:10268000BDE8FC41FFF7A4BFD1ED020A9FED201A7F
:102690004FF47A72C1EE201AFCEEE10A10EE900AB5
:1026A0005043B0FBF2F000EE900A9FED1A1AF8EEDC
:1026B000600A60EE200A80EE810ABCEEC00A10EECD
:1026C000104A051B04B9012405B90125124E002743
:1026D000307858B101973846FFF72CFF0097002358
:1026E0002A460421706809F073F809E00868FFF7CA
:1026F00021FF0097002322460421706809F068F842
:10270000307880F001003070BDE8FC815813002063
:1027100000007A440000C84218080020F8B50646B8
:10272000134C0025606800280CD000231A460321B2
:10273000009509F04DF8002300951A4605216068C0
:1027400009F046F80B48002300901A4631460AA0CB
:1027500009F006F86060002808D008F07FFE024605
:10276000009500230121606809F032F8F8BD0000EF
:10277000180800206D2600084C45445F54696D65BB
:102780007250776D0000000010B5412801D0012083
:1027900010BD08210846FEF74FFE3D21112002F032
:1027A00051FF8621172002F04DFF7F21262002F0E5
:1027B00049FF1E212D2002F045FF00212C2002F0B0
:1027C00041FF8D212A2002F03DFF3E212B2002F007
:1027D00039FF4FF47A7005F001F801F029F8002074
:1027E00010BD000010B52DED048BB0EE409AB0EE98
:1027F000608A9FED450A69EE098A002804D0012805
:1028000027D0022870D14BE011EE100AFDF747FFE8
:1028100048EE088A41EC190B18EE900AFDF73FFFCD
:1028200041EC100B03F018FF53EC192B51EC100B7B
:10283000FDF78FFEFDF746FFFDF731FF41EC100B72
:1028400002F076FF51EC100BFDF73CFF00EE100A92
:102850004AE028EE080A01EE010A10EE100AFDF720
:102860001EFF41EC100B03F0F7FEB0EE408AF0EED5
:10287000608A19EE100AFDF712FF53EC182BFDF7D2
:1028800068FEFDF71FFFFDF70AFF41EC100B02F099
:102890004FFF51EC100BFDF715FF00EE100A23E07F
:1028A00041EE018A18EE900AFDF7F9FE41EC100B9B
:1028B00003F0D2FEB0EE409AF0EE609A18EE100AE5
:1028C000FDF7EDFE53EC192BFDF743FEFDF7FAFE85
:1028D000FDF7E5FE41EC100B02F02AFF51EC100B66
:1028E000FDF7F0FE00EE100ADFED080ABDEC048BE8
:1028F00020EE200ADFED060A80EE201ABDEEC10AA6
:1029000010EE100A10BD0000000000000000E144BD
:10291000C3F54840064820210181064A426040F63E
:102920000441018040230382C2604181FFF707BB5D
:10293000C01300200010024010B5FFF7EBFFBDE808
:102940001040AFF3008010B500F0E6F90028FBD18D
:1029500010BD0000F8B51E26854A911E881E00F0A5
:1029600067F9834C01200C3CB4F90C1000EE101AEE
:10297000B4F90A10B8EEC01A00EE101AB4F9081033
:10298000F8EEC00A00EE101AB8EEC00AFFF72AFFF0
:102990006080B4F90C10022000EE101AB4F90A108D
:1029A000B8EEC01A00EE101AB4F90810F8EEC00A1A
:1029B00000EE101AB8EEC00AFFF714FFA080B4F9B9
:1029C0000C10002000EE101AB4F90A10B8EEC01A6C
:1029D00000EE101AB4F90810F8EEC00A00EE101A52
:1029E000B8EEC00AFFF7FEFEE080B4F90210614DB8
:1029F000002908DA484260802E201023EF685EA28A
:102A00000221B84705E02E201023EF685BA20221C7
:102A1000B847B4F90410002908DA4842A0802E20F3
:102A20001023EF6854A20421B84705E02E2010239C
:102A3000EF6852A20421B847B4F90610002908DA59
:102A40004842E0802E201023EF684BA20621B847B1
:102A500005E02E201023EF6848A20621B847207811
:102A6000002837D1012020701023EF6844A20221F2
:102A70003046B84746201023EF6842A20221B847EB
:102A800056201023EF6840A20221B8471023EF68B8
:102A90003EA204213046B84746201023EF6839A2F1
:102AA0000421B84756201023EF6837A20421B84705
:102AB0001023EF6836A206213046B847462010237F
:102AC000EE6830A20621B04756201023EE682EA2F1
:102AD0000621B047642004F079FEB4F902000A2709
:102AE00090FBF7F21026362000960223D5F810C08E
:102AF0001946E047B4F90200009690FBF7F107FB96
:102B000011024E200123D5F810C00221E047B4F98C
:102B10000400009690FBF7F236200223D5F810C08F
:102B20000421E047B4F90400009690FBF7F107FB9D
:102B300011024E200123D5F810C00421E047B4F95A
:102B40000600009690FBF7F236200223D5F810C05D
:102B50000621E047B4F90600009690FBF7F107FB69
:102B600011024E2001232C690621A047F8BD000068
:102B700044090020FC0800202D0000002000000077
:102B8000583A00002E00000043000000593A0000AF
:102B90005A3A00003EB50446002002900190009091
:102BA0006A4601A902A800F043F8BDF9001001200F
:102BB00000EE101ABDF90410B8EEC01A00EE101A9B
:102BC000BDF90810F8EEC00A00EE101AB8EEC00AFF
:102BD000FFF708FE2080BDF90010022000EE101A59
:102BE000BDF90410B8EEC01A00EE101ABDF90810B5
:102BF000F8EEC00A00EE101AB8EEC00AFFF7F2FDB8
:102C00006080BDF90010002000EE101ABDF904101C
:102C1000B8EEC01A00EE101ABDF90810F8EEC00A9E
:102C200000EE101AB8EEC00AFFF7DCFDA0803EBD32
:102C30007CB504460D4616466B4606223B216820AD
:102C400000F0CEF8002814D19DF801109DF8002066
:102C500041EA022323809DF803109DF8022041EAF7
:102C6000022129809DF805109DF8042041EA0221E7
:102C700031807CBD7CB504460D4616466B46062267
:102C80004321682000F0ACF8002814D19DF8011011
:102C90009DF8002041EA022323809DF803109DF84F
:102CA000022041EA022129809DF805109DF80420A8
:102CB00041EA022131807CBD10B5412000F066F868
:102CC0000446422000F062F840EA042000B2FDF71A
:102CD000AFFC9FED0D1B53EC112BFDF73AFC9FED64
:102CE0000C1B53EC112BFDF71BFBFDF7EBFC00EE6F
:102CF000100AF2EE040A20EE200ABDEEC00A10EE21
:102D0000100A00B210BD0000000000000040754035
:102D1000A4703D0AD743424010B580216B2000F0DB
:102D2000DDF8642004F052FD00216B2000F0D6F89D
:102D3000032000F0A0F8002000F098F8322000F006
:102D4000B7F80021382000F0C9F800216A2000F00F
:102D5000C5F80021232000F0C1F88021372000F0C1
:102D6000BDF8752000F012F8682801D0012010BDD0
:102D700001216B2000F0B2F800216C2000F0AEF8C9
:102D8000322000F095F8002010BD000010B5044678
:102D90001248FFF78AF9D0211048FFF753F90F487E
:102DA000FFF7C7F921460D48FFF74CF90B48FFF72D
:102DB000C0F90A48FFF779F9D1210848FFF742F92D
:102DC0000648FFF7B6F900210448FFF70AF9044660
:102DD0000248FFF78DF9204610BD0000C013002007
:102DE0002DE9F04106460F4615461C461E48FFF7E2
:102DF0005CF97006010E1C48FFF724F91A48FFF72A
:102E000098F928B11848FFF773F90120BDE8F0815F
:102E100039461548FFF716F91348FFF78AF91248A3
:102E2000FFF743F9012000EB4600C1B20E48FFF75F
:102E300009F90D48FFF77DF909E0012D0ED00121B8
:102E40000948FFF7CEF820706D1EEDB2641C002D0E
:102E5000F3D10548FFF74CF90020D7E700210248DD
:102E6000FFF7BFF82070EFE7C0130020C006010E87
:102E70001C2000F033B8C006010E1B2000F02EB855
:102E8000BC2801D3012110E0622801D302210CE00B
:102E90002A2801D3032108E0142801D3042104E0E7
:102EA0000A2801D3052100E006211A2000F016B8F7
:102EB00010B504464FF47A70844200D90446042CBD
:102EC00000D20424B0FBF4F0401EC1B2192000F07F
:102ED00005F86008BDE81040FFF7D2BF70B50446A2
:102EE0000D461448FFF7E1F8D0211248FFF7AAF881
:102EF0001048FFF71EF920B10E48FFF7F9F801203E
:102F000070BD21460B48FFF79DF80A48FFF711F9FD
:102F100029460848FFF796F80648FFF70AF920B156
:102F20000448FFF7E5F8012070BD0248FFF7E0F81C
:102F3000002070BDC013002070B50024084D002093
:102F400015F81410FEF748FEFEF7A8FE641CE4B264
:102F5000082CF4D3BDE87040012004F037BC000019
:102F6000680B00201CB508F079FA06466324134F5D
:102F70000A254FF47A78B4FBF5F005FB1041B4FB59
:102F8000F5F0B0FBF5F205FB120007EB80000068DE
:102F9000009007EB810000680190684600F0F0F8AF
:102FA00008F05CFA811B414504D30646641EE4B276
:102FB00004B96324012007F045FDDCE7D80B0020AD
:102FC0001CB508F04BFA06460024144F0A254FF4AE
:102FD0007A78B4FBF5F005FB1041B4FBF5F0B0FBDB
:102FE000F5F205FB120007EB80000068009007EB8C
:102FF000810000680190684600F0C2F808F02EFADF
:10300000811B414506D30646641C6420B4FBF0F1E5
:1030100000FB1144012007F015FDDAE7D80B002072
:1030200008F01CFA05460D4F0D4E4FF47A780A242D
:10303000307807EBC00000F0A3F808F00FFA411B4E
:10304000414507D305463078401CB0FBF4F104FB42
:1030500011003070012007F0F5FCE9E7880B002033
:103060003C0B002008F0FAF904460D4E0D4D4FF4CC
:103070007A780A27687806EBC00000F081F808F03B
:10308000EDF9011B414506D3697801B96F7004461B
:103090006878401E6870012007F0D4FCEAE7000061
:1030A000880B00203C0B00200446044D2888204457
:1030B00000F066F8012004F089FBF7E7400B0020E0
:1030C0002DE9F84F07468A46904600261E200090BC
:1030D0000025DFF8A8B04DE04FF0000946E00024DD
:1030E000B8F1010F09D0B8F1020F11D0B8F1030FF8
:1030F00018D0B8F1040F22D02CE06019504529DA1D
:1031000038191BF81410405DFEF766FD064621E0F5
:10311000281B1FD4381B1BF81410405DFEF75CFD04
:10312000064617E06019504514DA3819415D134816
:10313000103010F81400FEF74FFD06460AE0281B79
:1031400008D4381B415D0D48103010F81400FEF70C
:1031500043FD06463046FEF7A1FD012004F036FB94
:10316000641CE4B2082CBBD309F101090098814525
:10317000B5DB6D1C5545AFDBBDE8F88F680B002053
:103180002DE9F041074600250A4E002416F81410D8
:10319000385DFEF721FDFEF781FD641CE4B2082CCA
:1031A000F4D3012004F012FB6D1C0A2DEDDBBDE809
:1031B000F0810000680B0020FEE7704706463446A9
:1031C00008F04CF905464FF47A77204600F068F88D
:1031D00004B9344608F042F9411BB94202D3641ED7
:1031E000E4B205460A2007F02DFCEEE7002408F0C3
:1031F00035F906464FF47A776425E0B200F050F8CE
:1032000008F02CF9811BB94205D3641CB4FBF5F11D
:1032100005FB114406460A2007F014FCEDE7000008
:1032200010B500224FF40071054804F0F7FCBDE82A
:10323000104000224FF48071024804F0EFBC0000FF
:10324000000802400000024070B54FF48071124B3C
:103250004C00124D01280FD002281BD10022184625
:1032600004F0DCFC01222146284604F0D7FCBDE82E
:1032700070400A2004F0AABA0122184604F0CEFCDD
:1032800000222146284604F0C9FCBDE870400A200F
:1032900004F09CBA70BD000000000240000802402B
:1032A00070B50446642C15D20A25B4FBF5F00C4E1B
:1032B000305CFFF783F80120FFF7C6FFB4FBF5F0A1
:1032C00005FB1040305CFFF779F8BDE87040022044
:1032D000FFF7BABFBDE8704002A002F0B9B9000024
:1032E000000C00205B4552524F525D2044617461D6
:1032F000206F766572666C6F770A000070B50025E6
:1033000005F1B000C0B2002100F06CFA00210220EB
:1033100000F068FA0021102000F064FA0024402137
:10332000002000F05FFA641CE4B2802CF7D36D1C1F
:10333000EDB2082DE4D370BD2DE9F0478246DDF8EB
:1033400020900E4690461F460025780712E0314631
:10335000504600F04CF9544608E028466D1C19F818
:103360000000402100F03EFA641CE4B24445F4D36E
:10337000761CF6B2BE42EAD3BDE8F0872DE9F041F3
:1033800006460F4600208424164928E000EB00136F
:1033900092F800C011F8135065451ED101EB4308A7
:1033A000557898F80130AB4217D100257819C1B291
:1033B000F0B200F01CF9002404EB05104044402159
:1033C000807800F00FFA641CE4B2102CF4D36D1C6A
:1033D000EDB2022DEAD3BDE8F081401C80B2A042DC
:1033E000D4D3F8E72CBF00082DE9F0410746884602
:1033F00000201424184B2CE000EB0011167813F871
:103400001150B54223D103EB410155784978A942C7
:103410001DD10025114900EB801001EB400608EB9F
:103420000500C1B2F8B200F0E2F8002404EB451048
:1034300030444021807800F0D5F9641CE4B2202C9F
:10344000F4D36D1CEDB2042DE9D3BDE8F081401C2E
:1034500080B2A042D0D3F8E72CBF0008B4D0000857
:10346000064880210181064A426040F60141018000
:1034700040230382C2604181FEF761BD78130020C2
:103480000004024010B5FFF7EBFF642004F09EF942
:103490000021AE2000F0A6F90021084600F0A2F9B4
:1034A0000021102000F09EF90021402000F09AF940
:1034B0000021812000F096F90021CF2000F092F940
:1034C0000021A12000F08EF90021C82000F08AF927
:1034D0000021A62000F086F90021A82000F082F942
:1034E00000213F2000F07EF90021812000F07AF9D0
:1034F0000021FF2000F076F90021D32000F072F9BE
:103500000021084600F06EF90021D52000F06AF98C
:103510000021802000F066F90021D92000F062F936
:103520000021F12000F05EF90021DA2000F05AF9C4
:103530000021122000F056F90021DB2000F052F9A2
:103540000021402000F04EF90021202000F04AF92F
:103550000021022000F046F900218D2000F042F900
:103560000021142000F03EF90021A42000F03AF9D7
:103570000021A62000F036F90021AF2000F032F93A
:103580000021AF2000F02EF9FFF7B8FE0021BDE8C2
:103590001040084600F02BB80FB42DE9F8438046E0
:1035A000894617460CAB1E46002108460B9A02F0CE
:1035B0008DF8451C00200090002D14DD284604F0F5
:1035C00035FC0446002C0ED03346294620460B9A83
:1035D00002F07CF83B4622464946404600F0A3F8FC
:1035E000204604F041FABDE8F8035DF814FB10B57D
:1035F0000446B031C8B2002100F0F4F8102040EACF
:103600001410002100F0EEF804F00F00BDE81040A7
:10361000002100F0E7B800002DE9F04781468A4616
:103620001E460025102E00D01026203A02F0FF087A
:1036300018E00AEB0500C1B209F0FF00FFF7D7FF61
:1036400000240B4800EB081707E004EBC5004021FD
:10365000385C00F0C7F8641CE4B2B4EB560FF4D346
:103660006D1CEDB2B5EBD60FE3D3BDE8F0870000DB
:103670003CB900082DE9F04385B01546DDF83080EF
:10368000064689461A460020039004900090019057
:1036900002900024202A18D80DA103A802F002F8F5
:1036A0002A4603A9684601F0FDFF6F464FEA580518
:1036B00008E005FB046080B243464946FFF7ACFFD3
:1036C000641CE4B23A5D002AF3D105B0BDE8F08392
:1036D00025252564640000002DE9F04104460D46CF
:1036E00017461E4618E08020A0EB5600A04204D2E8
:1036F000002405EBD60000F007050820A0EBD6005B
:10370000A84200DA0025334629462046FFF784FF09
:1037100004EB560084B27F1C3A78A2F120005E28A8
:10372000E1D9BDE8F0812DE9F04706460D46174680
:103730001C46B1464FF00008202C00D010244FF05A
:10374000080A4AE0B8F1000F14D0C4F18000B0427A
:1037500004DA002605EBD40000F00705AAEBD4003C
:10376000A84200DA00254FF00008202C27D0102CAA
:103770002BD02FE08020A0EB5400B04204D20026D2
:1037800005EBD40000F00705AAEBD400A84200DA4C
:103790000025802A02D94FF001081EE00D2A09D029
:1037A000234629463046FFF737FF06EB540086B222
:1037B0007F1C12E0281985B24E467F1CF8E73A4676
:1037C00029463046FFF710FE04E03A4629463046C7
:1037D000FFF7D4FDBF1C301986B23A78002AB1D168
:1037E000BDE8F08770B505460C460E48FEF75DFC57
:1037F00078210C48FEF726FC0A48FEF79AFC214681
:103800000848FEF71FFC0748FEF793FC29460548C9
:10381000FEF718FC0348FEF78CFCBDE87040014839
:10382000FEF766BC7813002003211420FDF704BEC8
:1038300010B5142000F0B4FC800705D10321BDE8C9
:103840001040142000F05EBD10BD70B588B0064673
:10385000002408210846FDF7EFFD00210D2001F0AE
:10386000F1FE80210E20FDF7E7FD93208DF8080082
:1038700020208DF8090007A8009002AB022202A9BF
:103880000C2000F039F8054628000DD1002102A8CF
:10389000425C7254425C5440491CC9B20429F7D3BB
:1038A000405CA04200D0022580210E2000F02AFDBD
:1038B00008B0284670BD10B588B08DF808008DF8A6
:1038C00009101068CDF80A009088ADF80E0018684D
:1038D000049007A8009002AB0C2202A90E2000F071
:1038E0000BF8044624B9082000F05AFC000700D465
:1038F000022408B0204610BD2DE9FF5F8246DDF8A6
:1039000038900D4693464FF0020800260027BAF182
:103910000C0F05D0BAF10E0F04D11226102701E0CA
:103920007726302746F08001022001F08BFE8021AF
:103930000420FDF781FD0021012001F083FE80219C
:103940000A2000F0DFFC002405E0295D092001F0D9
:1039500079FE641CA4B25C45F7D35146012001F006
:1039600071FEBAF10C0F03D180210D2000F0CAFCCA
:103970004FF4FA64042000F013FC0546641EA4B260
:103980001CB1E80701D13D42F4D080210D20FDF7A4
:1039900053FD3CB1062000F003FC10F01B0F0DD0CE
:1039A0004FF0020880210C2000F0ACFC0021012027
:1039B00001F048FE04B04046BDE8F09F4FF000081B
:1039C0003540E80701D04FF00108BAF10C0FE9D1FA
:1039D0000A2000F0E5FB05460C2000F0E1FB00F0BA
:1039E000070028B1691E00EBC10089F8000002E061
:1039F000E80089F8000005B90125122D00D912252B
:103A0000002406E0092000F0CBFB03990855641C54
:103A1000A4B2AC42F6D3C5E730B587B00D4630212D
:103A20008DF804108DF8050001ACA21C022101A83C
:103A3000FDF7D0FC06A8009001AB042201A90C20E0
:103A4000FFF75AFF18B99DF81810902902D00220EC
:103A500007B030BD0023E15CE9545B1CDBB2102BE6
:103A6000F9D3F5E730B587B005460C46082108467E
:103A7000FDF7E2FC07210D2001F0E4FD03211420F5
:103A800000F040FC8DF8045006A8009001AB012224
:103A900001A90C20FFF730FF18B99DF81810102964
:103AA00002D0022007B030BD9DF8041021709DF8AF
:103AB00005106170F6E710B50A2003F08FFE0F21A4
:103AC000012001F0BFFD0F21012001F0BBFD0A2004
:103AD00003F084FE3D21112001F0B4FD1E212D20B4
:103AE00001F0B0FD00212C2001F0ACFD8D212A2039
:103AF00001F0A8FD3E212B2001F0A4FD402115205E
:103B000001F0A0FD002010BD10B588B093218DF804
:103B1000081070218DF8091000218DF80E1002AAEE
:103B20005418435CA3709DF80E30445C63408DF8DC
:103B30000E30491CC9B20429F2D3D21D072102A8B4
:103B4000FDF748FC08210846FDF776FC07A8009021
:103B500002AB092202A90C20FFF7CEFE18B99DF88E
:103B60001C10182900D0022008B010BD70B588B014
:103B70000D46A0218DF808108DF8090002ACA21C9A
:103B8000022102A8FDF726FC07AE02AB042202A91F
:103B90000C200096FFF7B0FE48B99DF81C100429D0
:103BA00005D19DF8081001F00F010A2900D002206C
:103BB00000281DD1295C2154401CC0B21028F9D323
:103BC00006AA102102A8FDF705FC02AB122202A9E9
:103BD0000C200096FFF790FE48B99DF81C100429B0
:103BE00005D19DF8081001F00F010A2900D002202C
:103BF00008B070BD2DE9F041804607F02FFC044667
:103C00004FF448750C4F4FF48056404603F0E6FDE4
:103C100001223146384604F001F8404603F0DEFD4B
:103C200000223146384603F0F9FF07F017FC001B6D
:103C3000A842EAD3BDE8F0810008024010B5002890
:103C400010D00B49B1FBF0F40120FCF739FF2046FE
:103C500003F0C4FD0020FCF733FF2046BDE8104010
:103C600003F0BCBDBDE81040012006F0EBBE000033
:103C700020A1070070B504460D461348FEF715FA5B
:103C800021461148FEF7DEF90F48FEF752FA2946A1
:103C90000D48FEF7D7F90C48FEF74BFA0A48FEF735
:103CA00004FA641CE1B20848FEF7CCF90648FEF7B6
:103CB00040FA00210448FEF794F904460248FEF752
:103CC00017FA204670BD0000E81300202DE9F041EE
:103CD0001646344D6A68002A12D001EB8001CFB23B
:103CE000032101EB8000C4B2A5F10C015220FFF7C3
:103CF000B9FE50B169682CA088470020BDE8F0816A
:103D00002FA001F0A5FC0020F8E7C82006F09AFEDD
:103D1000696832A0884723480A38FFF796FD20B12A
:103D2000696835A088470020E8E7696838A08847B7
:103D30001C480A38FFF7E8FE20B169683BA08847B5
:103D40000020DBE769683FA08847164B21460A3B05
:103D50001A1D6020FFF7AFFD20B1696840A08847B9
:103D60000020CBE7444900240C604C608C60CC60A0
:103D70003846FFF751FE20B1696840A0884700200F
:103D8000BCE76A683C4940A090472EB110223A49EE
:103D90003046FCF79BFAF473296809B13648884726
:103DA0000120ABE7680900204361726420646574F8
:103DB000656374696F6E206661696C6564000000FC
:103DC0005B4552524F525D2052433532325F4C4F69
:103DD00047206973204E554C4C0A000043617264C1
:103DE00020646574656374656420737563636573CB
:103DF0007366756C6C790000416E74692D636F6C2D
:103E00006C6973696F6E206661696C65640000009F
:103E1000416E74692D636F6C6C6973696F6E20738A
:103E200075636365737366756C000000436172644B
:103E30002073656C656374696F6E206661696C657B
:103E400064000000436172642073656C656374658F
:103E500064207375636365737366756C6C790000B9
:103E600041757468656E7469636174696F6E20660C
:103E700061696C6564000000D413002052656164C0
:103E8000206661696C6564005265616420737563C6
:103E90006365737366756C2E20446174613A2025E6
:103EA0007300000070B506460D4614460E48FEF736
:103EB000FCF831460C48FEF7C5F80B48FEF739F917
:103EC00029460948FEF7BEF80748FEF732F92146B1
:103ED0000548FEF7B7F80448FEF72BF9BDE8704037
:103EE0000148FEF705B90000E81300200FB470B5D3
:103EF00086B0384C6268002A16D00C9BCBB101EB1F
:103F00008001CDB2032101EB8000C6B2A4F10C0107
:103F10005220FFF7A7FD80B161682FA088470020DD
:103F200006B070BC5DF814FB31A001F091FB0020DD
:103F3000F6E736A090470020F2E7C82006F082FDA1
:103F4000616837A0884723480A38FFF77EFC20B114
:103F500061683AA088470020E2E761683DA0884791
:103F60001C480A38FFF7D0FD20B1616840A088479F
:103F70000020D5E7616844A08847164B31460A3BCC
:103F80001A1D6020FFF797FC20B1616845A08847A3
:103F90000020C5E70DAB102102A80C9A01F096FB9A
:103FA00000210191102804D3616844A088470020B3
:103FB000B6E702A92846FFF7D9FD20B1616849A0FC
:103FC00088470020ACE7626802A94AA09047012018
:103FD000A6E70000680900204361726420646574EC
:103FE000656374696F6E206661696C6564000000CA
:103FF0005B4552524F525D2052433532325F4C4F37
:1040000047206973204E554C4C0A0000446174618E
:1040100020627566666572206973204E554C4C00AF
:1040200043617264206465746563746564207375AC
:10403000636365737366756C6C790000416E7469B7
:104040002D636F6C6C6973696F6E206661696C6556
:1040500064000000416E74692D636F6C6C69736954
:104060006F6E207375636365737366756C00000013
:10407000436172642073656C656374696F6E20665A
:1040800061696C6564000000436172642073656C53
:104090006563746564207375636365737366756CBB
:1040A0006C79000041757468656E74696361746948
:1040B0006F6E206661696C6564000000466F726D0A
:1040C0006174746564206461746120697320746F25
:1040D0006F206C6F6E67206F7220696E76616C69FD
:1040E000640000005772697465206661696C6564DC
:1040F000000000005772697465207375636365730F
:104100007366756C2E2044617461207772697474D3
:10411000656E3A202573000010B540F60144204634
:1041200004F074FE204604F071FE204604F06EFE9A
:104130001A4C082302220121204603F082FD10239D
:1041400002220121204603F07CFD202302220121CE
:10415000204603F076FD082303220021204603F0C9
:1041600094FD102303220021204603F08EFD20231E
:1041700003220021204603F088FD0022082120466A
:1041800003F04CFD00221021204603F047FD20469D
:104190000022BDE81040202103F040BD0004024091
:1041A00001465E20FFF766BD10B50F48FDF77DFFA5
:1041B00047210D48FDF746FF0B48FDF7BAFF0028E1
:1041C000FAD101210848FDF70CFF084C20700021AE
:1041D0000548FDF706FF60700348FDF789FFBDE85D
:1041E00010400A2003F0F2BA64130020CE08002029
:1041F00070B5FDF7B1F804460D4DB4B1687884424E
:1042000013D00C48005D80B12978012909D10A4BEF
:10421000195C491C1954291DC96811B1202C00D200
:104220008847287808B9012028706C70204670BD36
:1042300024090020DCDA00088C13002070B588B057
:10424000054620220C496846FCF71CF80FE00024C4
:104250006E4606EB840116F82400CB788A784978FC
:1042600004F0EEFF05F018FA641C082CF1DB6D1E5B
:10427000ADB2ECD208B070BD30DB000810B504461A
:10428000608904F0C3FD238AE0680122BDE8104084
:10429000002103F0D6BC10B50446608904F0B6FDD9
:1042A0000122238A1146E06803F0CBFC238A032213
:1042B0000021E06803F0E9FCE0688169228A11438B
:1042C000816110BD00231A461946184604F0B8BF94
:1042D00010B544F29F11C72000F082FEBDE81040E7
:1042E00004F0D8BC00F15A01B52908D2092190FB8D
:1042F000F1F00F30C2B20021014805F0D1BF704784
:10430000000C004070B505460C462846FFF748FFF4
:1043100040EA04012846BDE8704001F093B910B5A9
:104320000120FDF7B9F80720FDF7B6F8BDE8104009
:104330002020FDF7B1B8000010B540F6014420463A
:1043400004F064FD204604F061FD204604F05EFDAB
:10435000204604F05BFD214C04230222012120466B
:1043600003F06FFC082302220121204603F069FCC0
:10437000102302220121204603F063FC20230222A5
:104380000121204603F05DFC042303220021204686
:1043900003F07BFC082303220021204603F075FC78
:1043A000102303220021204603F06FFC2023032268
:1043B0000021204603F069FC0421204603F02AFC7A
:1043C0000821204603F026FC1021204603F022FCA1
:1043D0002046BDE81040202103F01CBC0004024030
:1043E00010B5BF2080F31188BFF34F8FBFF36F8FDD
:1043F00007F03AF818B104494FF0805008600020E7
:1044000080F3118810BD000004ED00E018B41748D7
:10441000016841F470010160154A106840F0010024
:104420001060134B0833186840F0800018600024B7
:1044300000944CF2503002E00099491C0091009920
:104440008142F9D31C6010680A490840106008498D
:104450000948091D0860106820F480201060044895
:104460000C30046018BC05F0D1BA000088ED00E003
:1044700000380240FFFFF6FE10300024074C606851
:1044800080470748E268008881B2064890474FF4A9
:104490007A74204603F09AF9FBE7000048080020F0
:1044A0005C080020AAB800080EB5DFF8C0A0DAF852
:1044B0000000804704F056FD00202D4F002207EB3E
:1044C000C0014A718A71401C0728F8DB00244FF4B0
:1044D0007A7BDFF8A080DAF80C008047DAF8040075
:1044E00080470546D8F808302A4623A12AA09847D5
:1044F00001A804F06FFD0620421E07EBC20207EB85
:10450000C00113680B6052684A60401E0028F3DC4B
:1045100017480199383881630299C1634FF41670C6
:1045200000900023D8F814602A4619461CA0B04712
:1045300006F094FF0546281B584512D30024DFF8E7
:10454000649007EBC400D8F8086083794279C4EB23
:10455000041009EB400014A1B047641C072CF0DBE9
:104560002C460A2006F06EFAB5E70000D0080020BD
:104570009011002094090020E5BD93E5898DE58523
:1045800089E785A7E5BCBAE5BAA6E4B8BAEFBC9A54
:104590002564204C5800000074372E747874000095
:1045A000733000003A070020253032643A2530325B
:1045B00064000000084C2068804708480068804775
:1045C0000748006880470748E060606880470A2025
:1045D00003F0FCF8F9E7000028090020F80A0020A1
:1045E000240800206D7D0008C0B0104C2068804772
:1045F0000F48A0600F4D2868804769680E4DB5F9D7
:10460000020088470D4E4FF4807760688047B5F907
:1046100002300BA23946684601F02AF872686946F2
:104620000FA090470A2003F0D1F8EEE7C008002061
:10463000217D0008240C002048000020940900205F
:10464000E5BD93E5898DE888B5E69CBAE8A792E5D3
:10465000BAA6E4B8BAEFBC9A256420E5BAA6000071
:1046600074302E747874000010B5034C6068804775
:10467000E069BDE810400047400B00200A4C20686C
:1046800080470A4D287858B1012802D0022807D166
:1046900003E0A1680120884702E0E1680120884723
:1046A0000A2003F093F8EDE7DC0A00204800002020
:1046B0002DED028B82B02F4D286880472E4EB2EE32
:1046C000048A696868468847A86880470446BDF937
:1046D000000000EE100AF8EEC00A80EE880A10EE24
:1046E000100AFBF7DCFF41EC100BB76853EC102B02
:1046F00022A124A0B847BDF9020000EE100AF8EE8E
:10470000C00A80EE880A10EE100AFBF7C8FF41ECE1
:10471000100BB76853EC102B18A11CA0B847BDF9BB
:10472000040000EE100AF8EEC00A80EE880A10EECF
:10473000100AFBF7B4FF41EC100BB76853EC102BD9
:104740000EA114A0B84700EE104AF8EEC00A80EEA1
:10475000880A10EE100AFBF7A2FF41EC100BB468B8
:1047600053EC102B05A10DA0A0470A2003F02EF852
:10477000A7E700004809002094090020252E326C8C
:104780006600000074352E747874000074362E7440
:104790007874000074372E747874000074382E74A6
:1047A000787400000B4D686880470B4C2068804788
:1047B0000A48A060A9680A4DA8888847094E606821
:1047C0008047B368AA8808A10CA09847142002F07B
:1047D000FDFFF4E7040B0020C0080020D59B000873
:1047E0004800002094090020E9A38EE68987E8BDEF
:1047F000ACE9809FEFBC9A256400000074302E74F1
:10480000787400000B4D286880470B4E4FF4FA7700
:104810006868804710EE100AFBF741FF41EC100B6F
:10482000B46853EC102B05A10AA0A047384602F04B
:10483000CDFFEDE72C0C002094090020E98592E7DC
:10484000B2BEE580BCE4B8BAEFBC9A252E326C66E5
:104850000000000074302E747874000008B5184F02
:1048600038688047174D68688047174C174E78683E
:1048700080478046A368424615A116A09847B8F124
:10488000320F0DDDA26815A118A09047A96801207C
:1048900088471848006B00907169009888470AE0C3
:1048A000A26815A111A09047A968002088470020A0
:1048B0000090716988470A2002F088FFD7E700005E
:1048C000F008002048080020940900202408002057
:1048D000256467007431322E74787400E7A681E68F
:1048E000ADA2E9809AE8A18C000000007431332E5B
:1048F0007478740024B80008E58FAFE4BBA5E980A4
:104900009AE8A18C0000000008B5DFF85880D8F8BC
:1049100000008047144FB8688047144D686880478E
:10492000134E30688047F8688047386880470446EF
:10493000D8F80810E0B28847192C09D80D4800684B
:104940000090716900988847A96800208847EAE7C5
:104950000020009071698847A9684FF47A708847F1
:10496000E1E70000100C0020B80A0020040B002032
:104970002408002024B800082DED028B82B0234EBD
:1049800030688047DFF88880D8F800008047214FE2
:104990009FED218A214DD8F80C008047D8F80400FB
:1049A0008047642817D268780128F4D00024786BF7
:1049B000019000EE104AF169F0EE480AB8EEC00A24
:1049C00001988847142002F001FF641C642CEEDD7E
:1049D0000120687016E068780028DCD06424B86B89
:1049E000019000EE104AF169F0EE480AB8EEC00AF4
:1049F00001988847142002F0E9FE641E002CEEDACC
:104A000000206870142002F0E1FEC4E724080020B2
:104A1000D008002024B8000800008C424800002084
:104A200005480068804705484068804706F0BAFAA4
:104A30000A2002F0CBFEF9E72408002048080020F5
:104A4000094800688047094840688047084C20684A
:104A50008047E168452088470648A0606068804735
:104A60000A2005F0EFFFF9E724080020480800209D
:104A700080090020397400082DED028B82B0264F8A
:104A800038688047254D68688047254C20688047F6
:104A9000DFF89080DFF89090244E4FF4FA7AB868EF
:104AA0008047B0EE408A18EE100AFBF7F8FD41ECA3
:104AB000100BD8F808C053EC102B1DA123A0E04721
:104AC00018EE100A484506DAB0690190226951468D
:104AD000019890471BE018EE100A13494942084418
:104AE000B0F5401F05D8A96800208847A069804715
:104AF0000DE018EE100A1749884208DDF0690190B0
:104B00002269514601989047A968002088470A20E9
:104B100002F05CFEC3E70000100B002048080020F4
:104B200024080020940900200000704124B80008E7
:104B3000E8B685E5A3B0E6B3A2E8B79DE7A6BBE477
:104B4000B8BAEFBC9A252E326C66000074302E7411
:104B5000787400000000A0410EB5304FB86880475F
:104B6000DFF8BC80D8F80000804704F0FBF92D4E38
:104B70002DA133A0B26890470020334D002205EBF1
:104B8000C0014A718A71401C0728F8DB01A804F0B3
:104B900021FA0620421E05EBC20205EBC001136894
:104BA0000B6052684A60401E0028F3DC01982860C0
:104BB00002986860F8688047D8F804008047BCEE27
:104BC000C00A4FF07809CDF8009010EE100A0023CB
:104BD000746982B219461DA0A04778688047CDF855
:104BE0000090024600237469012118A0A047002408
:104BF000DFF85C9005EBC400D6F808C083794279F1
:104C0000C4EB041009EB400012A1E047641C072C20
:104C1000F0DB642005F016FFB8E70000B80A0020BA
:104C2000D00A002094090020E6B8A9E6B9BFE5BA89
:104C3000A6E68EA7E588B6E7B3BBE7BB9F000000FA
:104C400074372E74787400005811002073300000FF
:104C50006806002025643A256400000008B5DFF8E6
:104C60008080D8F8000080471E4F386880470024B5
:104C700000251D4ED8F804008047814649461BA0F8
:104C800000F0E6FCA9F12809B9F1140F10D87268F8
:104C90001BA120A090472148006A009000EE104A16
:104CA000F969DFED1F0AB8EE400A0098884703E073
:104CB00072681CA117A0904715B1012D03D004E024
:104CC0001434E4B201E0143CE4B2642C01D30125B5
:104CD00001E004B900250A2002F078FDCAE70000CF
:104CE000F008002024080020940900205B494E466B
:104CF0004F5D2064617461203D2025640A0000003E
:104D000020E4B998E5AEA2E5B7B2E4B88AE8BDA65A
:104D10002000000074302E747874000024B800085D
:104D200000008C4220E697A0E69588E695B0E5ADB8
:104D3000972000000EB5244F38688047DFF88C803C
:104D4000DFF88C900DF1040AD8F8183021A2B9F8D8
:104D5000001022489847ADF804000546D8F81830EE
:104D60001FA2B9F800101D489847ADF80600064686
:104D7000D8F818301CA2B9F8001018489847014616
:104D8000ADF80800002400223AF81200A04200D931
:104D90000446521C032AF7DB8DF800508DF80160A1
:104DA00000EE104A8DF80210F969DFED110AB8EE35
:104DB000400A0098884721460EA000F049FC0A20CE
:104DC00002F004FDC0E70000240800209409002040
:104DD0000C000020736C6964657231009C0D00202A
:104DE000736C696465723200736C69646572330058
:104DF00000008C425B494E464F5D2025640A00004E
:104E0000054CA0688047054860604FF47A742046DE
:104E100002F0DCFCFBE7000068090020F18C0008D0
:104E200007480649416080688047002005F024FE5D
:104E30004FF47A74204602F0C9FCFBE7E59F0008B6
:104E4000E409002010B501218C07204605F089FBFC
:104E5000012803D104480168491C01602046BDE8CF
:104E60001040012105F07ABB240B00207FB50446D9
:104E70000D464FF4805003F0C9FF4FF0807003F0EF
:104E8000F5FF684605F077FB4FF08046304605F0A9
:104E900049FA0294ADF800502020ADF8020000203D
:104EA000ADF80400ADF806008DF80C0069463046F8
:104EB00005F006FB304605F0D7F80121304605F035
:104EC00049FB012200211C2003F05CF97FBD00009A
:104ED0002DE9F84FDFF884A00121504605F041FB91
:104EE000012839D1DFF87880D8F80000401CC8F8D4
:104EF00000000121504605F031FB002700970025F6
:104F00000024DFF8609004EB440109EB8106307A5D
:104F100070B17068D8F80020904207D859F8210085
:104F20006A46002105F0F6FD377201E06D1CEDB216
:104F3000641C142CE7DB25B9504605F0B7FA0A4883
:104F400007700098002807D008494FF0805008608B
:104F5000BFF34F8FBFF36F8FBDE8F88F000800409D
:104F600044000020681000204000002004ED00E014
:104F70007FB504460D464FF4A06003F051F941F2AD
:104F8000020003F043FF4FF0807003F06FFF6846AC
:104F900005F0F1FA114E304605F0C4F90294ADF86F
:104FA00000500020ADF80200ADF80400ADF8060096
:104FB0008DF80C006946304605F082FA304605F05F
:104FC00053F80121304605F0C5FA012202211E20C6
:104FD00003F0D8F8304605F069FA7FBD00080040BC
:104FE00070B588B005460C4641F2030003F00EFF91
:104FF0004FF0807003F03AFF1E4E304605F092F9F4
:10500000ADF8044003950024ADF80640ADF8084023
:10501000ADF80A408DF8104001A9304605F050FA6D
:10502000ADF818400120ADF81400ADF81A40ADF805
:105030001640ADF81C40ADF81E4005AA00213046D0
:1050400005F018F84FF4FA720021304605F028F9FF
:1050500060220021304605F0F9F800221146304662
:1050600005F02EF9304604F0FFFF304605F023FA34
:1050700008B070BD000C00407047000070B5154CC2
:105080000521204605F0A5FB002819D0204605F093
:1050900022FB114BC0B21871598901250F4E002413
:1050A00049B101290CD119894A1C92B21A81705454
:1050B000FB2806D008E0F42802D15D811D81307004
:1050C00070BD074805705C81D8888242F8D35C8146
:1050D0001C8170BD0044004000000020D40C002062
:1050E0007C09002038B51F4C1D49204605F093FB74
:1050F00000280DD0204605F0EEFAC0B200251A4C6B
:10510000AA2802D0042804D006E00120608225826B
:1051100038BD618A01290BD0618A0129F8D1218A21
:10512000E2899142F4D24A1C2282104A505438BD7E
:1051300065820E49228AA1F58170FBF7A3F80C481D
:10514000218AA0F80011009501460A4800236A460A
:10515000006806F05FF8C8210448FBF7ACF838BDDA
:105160000503050000480040000000209E0F0020BD
:105170009C0E00201400002010B5114C0521204683
:1051800005F027FB002819D0204605F0A4FAC0B28C
:105190000C4BAA2803D1D97809B90121D970D97843
:1051A00000290BD05978084C4A1CD2B25A7060546E
:1051B0009878824202D10020D870587010BD00004B
:1051C00000140140000000207E14002010B50446A9
:1051D000208803F01BFE608803F018FEA08803F00F
:1051E00015FED4E90202E16902F0E2FCD4E904020E
:1051F000E16902F0DDFCD4E902030122022102F0A0
:1052000020FDD4E904030122022102F01AFDD4E9B1
:1052100002030222002102F038FDD4E90403022235
:10522000002102F032FD206A05F05EFAA169206AD1
:1052300005F0EEF90021206A05F028FB0021206A24
:1052400005F040FB0021206A05F02EFB0821206AB2
:1052500005F032FB0421206A05F020FB0021206AC2
:1052600005F0C4FA94F824000022052102F08AFF18
:1052700040F20531206A05F0C4FA0021206A05F0E9
:1052800023FA206ABDE8104005F09EBA2DE9F041EE
:1052900006460F46154600240AE0395D304600F008
:1052A0000CF80721306A05F094FA0028F9D0641C44
:1052B0006D1E681CF1D1BDE8F081006A05F00FBADF
:1052C000C2B04FF0FF35074C04E0BDF8041101A84F
:1052D00003F08EF82A4601A9206805F0D3FF0128C3
:1052E000F8D1F2E71400002070B54FF0804005F0CF
:1052F000E2F8134C0025656000F04AF8142002F033
:1053000065FAE068401CE06094ED040AD4ED000A00
:1053100030EE200A84ED040A0A280AD1DFED090ADA
:1053200080EE201A84ED021AE5609FED070A84EDF5
:10533000040AD4ED020A9FED051A80EE810A70BDC1
:10534000200B00200000C8420000000083C09A3FEC
:1053500070B54FF4406003F059FD084D4FF4006400
:10536000234602220121284602F06BFC23462846F0
:10537000BDE870400322002102F087BC000002401B
:1053800010B5FFF7E5FFBDE8104000F017B80000CA
:1053900070B5094D4FF400642146284602F03CFCEC
:1053A0000A2002F01BFA2146284602F033FCBDE831
:1053B00070400A2002F012BA0000024010B5A72186
:1053C0000920FFF753FDBDE8104002F0A3BE000026
:1053D0007CB54FF0804005F06EF8164C00256560F6
:1053E000FFF7D6FF142002F0F1F96069401C6061FC
:1053F00094ED060AD4ED000A30EE200A84ED060A88
:105400000A2815D19FED0C1AC0EE010A10EE900A81
:10541000FBF745F9CDE90001084810220421466A4E
:1054200007A30A20B04765619FED090A84ED060ACB
:105430007CBD0000200B00200000C842FC080020BA
:1054400025352E316620434D20202020000000000D
:1054500000000000FEE70000F0B59FB004464FF4E6
:105460008776462544210EA8FAF725FF34225849AD
:1054700001A8FAF707FFADF806504720ADF80A007B
:105480004820ADF80E004920ADF812004A20ADF8D2
:1054900016004B20ADF81A004C20ADF81E004D2030
:1054A000ADF822004E20ADF826004F20ADF82A00BE
:1054B0005020ADF82E005120ADF832005220ADF84A
:1054C000360044A000680090002C79D04FF47A7523
:1054D00001AFAC421EDB94FBF5F007EB8000807857
:1054E0008DF80200042269463B48FFF7CFFE3046A4
:1054F00002F06CF9BDF836008DF80200042269460E
:105500003548FFF7C3FE304602F060F994FBF5F032
:1055100005FB1044642C1FDB642594FBF5F007EBBE
:10552000800080788DF80200042269462A48FFF73F
:10553000ADFE304602F04AF9BDF832008DF80200A7
:10554000042269462448FFF7A1FE304602F03EF9E6
:1055500094FBF5F005FB10440A2C1FDB0A2594FB95
:10556000F5F007EB800080788DF802000422694690
:105570001948FFF78BFE304602F028F9BDF82E00DF
:105580008DF80200042269461348FFF77FFE30467B
:1055900002F01CF994FBF5F005FB1044002C0CDD27
:1055A00007EB840080788DF80200042269460A48DF
:1055B000FFF76CFE304602F009F91FB0F0BDFFE7BF
:1055C0008DF80250042269460348FFF75FFEF4E7B6
:1055D000FCDA0008F4F500FBFC13002010B5064CC3
:1055E0002078012806D10548211D896880788847E0
:1055F0000020207010BD00007C090020D40C002089
:105600000D480721C1614FF416518161262180F8B0
:10561000241008214161094A02614FF44061418030
:105620000423C3608260018041F21101818004493A
:105630000162FFF7CBBD0000FC1300200000024018
:10564000004400400A4601465E20FEF72BBC0000E5
:105650000FB4054B10B503A9044A029801F0ECF908
:1056600010BC5DF814FB0000457A0008C40C002053
:105670000FB47CB50C0009AD01D0611E00E0002123
:10568000CDE90001064B6A462946089801F0D4F995
:10569000002C02D0009A002111707CBC5DF814FB34
:1056A0003F7100080FB4084B10B504A902AA039873
:1056B00001F0C2F9044602A9002001F04BFD20468A
:1056C00010BC5DF814FB0000557100087CB50C009F
:1056D0001D461646014601D0601E00E00020CDE9BF
:1056E0000010064B6A462946304601F0A5F9002C09
:1056F00002D0009A002111707CBD00003F710008AB
:1057000003B401984100009850EAC12018BF04205A
:105710004A0D18BF40F0010040F2FF72B2EB515F3A
:1057200008BF40F00200012808BF052002B0704702
:1057300070B59B482DED020B2DED068B079D25F0D6
:105740000044A04218DC9748844202DC0AD1069843
:1057500040B19DED060BBDEC068B02B0BDE870407C
:1057600001F04EB8002DCCBF9FED8F0B9FED900B3D
:10577000BDEC068B02B070BD8F48A04215DD8F488E
:10578000A042D8BF4FF0FF3458DD9DED060B51EC21
:10579000100BFFF7B5FF042808BF01F065F89DED79
:1057A000060BBDEC068B02B070BD9DED060B51ECF7
:1057B000100B02F03BF9CDE9060181489FED828B89
:1057C000A0423CDD8248A0421FDD00249FED82AB59
:1057D0009DED060B53EC1A2B51EC100BFAF7A0FDC4
:1057E0009DED060B41EC190B53EC1A2B51EC100BF1
:1057F000FAF73DFE53EC182BFAF733FE53EC192B56
:10580000FAF7A7FECDE9060149E09DED060B01245C
:1058100053EC182B51EC100BFAF782FD9DED060BA3
:1058200041EC190B53EC182B51EC100BFAF719FE45
:1058300053EC192BFAF78DFECDE906012FE06848ED
:10584000A0421FDD02249FED689B9DED060B53ECEB
:10585000192B51EC100BFAF70AFE53EC182BFAF740
:105860005FFD9DED060B41EC180B53EC192B51EC31
:10587000100BFAF7F6FD53EC182BFAF76AFECDE998
:1058800006010CE09DED060B032453EC102B9FED5D
:10589000580B51EC100BFAF75CFECDE906019DEDBB
:1058A000060B53EC102B51EC100BFAF7E0FD41EC1A
:1058B000180B53EC182BFAF7DAFD41EC190B4E4894
:1058C0000621B0EE490AF0EE690A784400F001FFC3
:1058D00053EC182B51EC100BFAF7C9FD41EC180BE7
:1058E0004648B0EE490AF0EE690A0521784400F016
:1058F000F0FE53EC192B51EC100BFAF7B8FD41EC0C
:10590000100B51EC180B53EC102B002C0EDAFAF79D
:1059100007FD9DED061B53EC112BFAF7A8FD9DED3D
:10592000061B53EC112BFAF79FFD35E0FAF7F8FC54
:105930009DED061B53EC112BFAF799FD41EC100B72
:105940002F48784400EBC40090ED001B51EC100B85
:1059500053EC112BFAF785FD9DED061B53EC112B33
:10596000FAF77FFD41EC100B2648784400EBC400A9
:1059700090ED001B51EC100B53EC112BFAF774FD5A
:1059800041EC100B002DA2BFBDEC068B02B070BD28
:1059900051EC100B81F0004141EC100B01E70000CD
:1059A000000010440000F07F182D4454FB21F93F03
:1059B000182D4454FB21F9BF0000DC3F0000203EBD
:1059C0000000F33F00000000000000000000F03F76
:1059D0000000E63F00000000000000000000004062
:1059E0000080034000000000000000000000F83FBD
:1059F000000000000000F0BF0A830000C082000029
:105A00004A820000028200002DE9F04D2DED040BCA
:105A10002DED0E8B96B0DDE92550279CDDF890A08A
:105A200025F0004624F00048BAF1000F14BF012110
:105A3000002101EB4502FC4953184A1093422AD336
:105A4000002814BF0123002303EB44030B44F74950
:105A50008B4220D358EA00019FEDF59B76D0DFF80A
:105A6000D8B35D4503D1BAF1000F05D188E0BAF192
:105A7000000F08BF002100D0012101EB450111F505
:105A8000001F08D8002814BF0121002101EB4401A8
:105A900011F5001F0BD99DED261B9DED240B16B0B3
:105AA000BDEC0E8B04B0BDE8F04D00F0B3BE002796
:105AB000002DBCBFE149884521DAE1498845A8BFEE
:105AC00002271CDAC3451ADCDE4901EB28511429F0
:105AD00008DDC1F1340220FA02F101FA02F2824239
